:04000000803114280F
:100008007E1480312E00161E0A280B2812280C1E7A
:100018000E280F2812288031D52080317E10090043
:10002800803116287E10200080311A288031BD20AA
:100038008031200016149610161196116430F000C5
:100048000030F10080319C20803120001610961479
:10005800161196116430F0000030F10080319C20B8
:100068008031200016109610161596116430F00095
:100078000030F10080319C2080312000161096104D
:10008800161196156430F0000030F10080319C2084
:100098008031200016109610161596116430F00065
:1000A8000030F10080319C20803120001610961419
:1000B800161196116430F0000030F10080319C2058
:1000C80080311D28803114280F30200096009701B8
:1000D8009801F0309100FF309200FF309300F0302B
:1000E8003E00B800FF30C300FF30CE00B901C401A4
:1000F800CF01E501BA01C501D001FF30BB00FF30D7
:10010800C600FF30D100FF30BC00FF30C700FF3011
:10011800D2000830E800BD01BE01BF01C801C90115
:10012800CA01D301D401D501E901EA01EB010800B4
:10013800A5280B30F2006230890BA028F20BA0280A
:1001480000320130F0020030F13B700A031DB02884
:10015800710A031DB028B1289D2808002E000C1034
:100168000B140030F0000030F1008031D0208031D5
:1001780008008031C720803180316820803180318B
:10018800B22080310800603031008D008F0191016C
:1001980006309300920108007108F4007008F3001B
:0401A8000800080043
:020000040001F9
:0A000E008F3FFF3F9F3FFF3FFF3F82
:00000001FF
